{
  "address": "0xca4F58fcE2eC95C75957Bc9A20f0e70Ab1380501",
  "abi": [
    {
      "inputs": [
        {
          "internalType": "uint256",
          "name": "_unlockTime",
          "type": "uint256"
        }
      ],
      "stateMutability": "payable",
      "type": "constructor"
    },
    {
      "inputs": [
        {
          "internalType": "string",
          "name": "_name",
          "type": "string"
        }
      ],
      "name": "getName",
      "outputs": [
        {
          "internalType": "string",
          "name": "",
          "type": "string"
        }
      ],
      "stateMutability": "view",
      "type": "function"
    },
    {
      "inputs": [
        {
          "internalType": "string",
          "name": "_name",
          "type": "string"
        },
        {
          "internalType": "string",
          "name": "_value",
          "type": "string"
        }
      ],
      "name": "setName",
      "outputs": [],
      "stateMutability": "nonpayable",
      "type": "function"
    }
  ],
  "transactionHash": "0x795902c3b1c0d64d18bd068817c38dacde83a7548a7dcc1deddae2035a0ede96",
  "args": [
    1713185390
  ],
  "numDeployments": 1,
  "solcInputHash": "64f961bc3efe7a703ce0fd4e3bba6181",
  "bytecode": "0x60806040526040516104b73803806104b783398101604081905261002291610028565b50610041565b60006020828403121561003a57600080fd5b5051919050565b610467806100506000396000f3fe608060405234801561001057600080fd5b50600436106100365760003560e01c80635c707f071461003b5780636932cf8114610050575b600080fd5b61004e6100493660046101fc565b610079565b005b61006361005e366004610260565b6100a9565b60405161007091906102c1565b60405180910390f35b8060008360405161008a91906102f4565b908152602001604051809103902090816100a4919061039a565b505050565b60606000826040516100bb91906102f4565b908152602001604051809103902080546100d490610310565b80601f016020809104026020016040519081016040528092919081815260200182805461010090610310565b801561014d5780601f106101225761010080835404028352916020019161014d565b820191906000526020600020905b81548152906001019060200180831161013057829003601f168201915b50505050509050919050565b634e487b7160e01b600052604160045260246000fd5b600082601f83011261018057600080fd5b813567ffffffffffffffff8082111561019b5761019b610159565b604051601f8301601f19908116603f011681019082821181831017156101c3576101c3610159565b816040528381528660208588010111156101dc57600080fd5b836020870160208301376000602085830101528094505050505092915050565b6000806040838503121561020f57600080fd5b823567ffffffffffffffff8082111561022757600080fd5b6102338683870161016f565b9350602085013591508082111561024957600080fd5b506102568582860161016f565b9150509250929050565b60006020828403121561027257600080fd5b813567ffffffffffffffff81111561028957600080fd5b6102958482850161016f565b949350505050565b60005b838110156102b85781810151838201526020016102a0565b50506000910152565b60208152600082518060208401526102e081604085016020870161029d565b601f01601f19169190910160400192915050565b6000825161030681846020870161029d565b9190910192915050565b600181811c9082168061032457607f821691505b60208210810361034457634e487b7160e01b600052602260045260246000fd5b50919050565b601f8211156100a4576000816000526020600020601f850160051c810160208610156103735750805b601f850160051c820191505b818110156103925782815560010161037f565b505050505050565b815167ffffffffffffffff8111156103b4576103b4610159565b6103c8816103c28454610310565b8461034a565b602080601f8311600181146103fd57600084156103e55750858301515b600019600386901b1c1916600185901b178555610392565b600085815260208120601f198616915b8281101561042c5788860151825594840194600190910190840161040d565b508582101561044a5787850151600019600388901b60f8161c191681555b5050505050600190811b0190555056fea164736f6c6343000818000a",
  "devdoc": {
    "kind": "dev",
    "methods": {},
    "version": 1
  },
  "userdoc": {
    "kind": "user",
    "methods": {},
    "version": 1
  },
  "storageLayout": {
    "storage": [
      {
        "astId": 5,
        "contract": "contracts/Tournament.sol:Tournament",
        "label": "names",
        "offset": 0,
        "slot": "0",
        "type": "t_mapping(t_string_memory_ptr,t_string_storage)"
      }
    ],
    "types": {
      "t_mapping(t_string_memory_ptr,t_string_storage)": {
        "encoding": "mapping",
        "key": "t_string_memory_ptr",
        "label": "mapping(string => string)",
        "numberOfBytes": "32",
        "value": "t_string_storage"
      },
      "t_string_memory_ptr": {
        "encoding": "bytes",
        "label": "string",
        "numberOfBytes": "32"
      },
      "t_string_storage": {
        "encoding": "bytes",
        "label": "string",
        "numberOfBytes": "32"
      }
    }
  }
}